:100000000C942A000C9447000C9447000C94470071
:100010000C9447000C9447000C9447000C94A304E4
:100020000C9447000C9447000C9447000C94470034
:100030000C9447000C9447000C9447000C94470024
:100040000C9447000C9447000C9447000C94470014
:100050000C94470011241FBECFE5D8E0DEBFCDBF12
:1000600010E0A0E6B0E0ECECFAE002C005900D92E2
:10007000AE37B107D9F720E0AEE7B0E001C01D927E
:10008000A438B207E1F70E9408020C9464050C94AE
:100090000000843008F072C0683008F06FC0413052
:1000A000A1F5813089F028F08230C9F0833011F158
:1000B00008952BB381E090E002C0880F991F6A95E4
:1000C000E2F7822B8BBB089528B381E090E002C059
:1000D000880F991F6A95E2F7822B88BB089525B394
:1000E00081E090E002C0880F991F6A95E2F7822BA9
:1000F00085BB089522B381E090E002C0880F991F6C
:100100006A95E2F7822B82BB0895411137C0813096
:1001100091F028F08230D9F0833029F108952BB383
:1001200081E090E002C0880F991F6A95E2F7809500
:1001300082238BBB089528B381E090E002C0880F32
:10014000991F6A95E2F78095822388BB089525B3AD
:1001500081E090E002C0880F991F6A95E2F78095D0
:10016000822385BB089522B381E090E002C0880F0E
:10017000991F6A95E2F78095822382BB08958430A7
:1001800070F5683070F5813079F028F08230A9F090
:100190008330E1F028C089B390E002C0959587953F
:1001A0006A95E2F78170089586B390E002C0959554
:1001B00087956A95E2F78170089583B390E002C055
:1001C000959587956A95E2F78170089580B390E0E0
:1001D00002C0959587956A95E2F7817008958FEF33
:1001E00008958FEF08958FEF08958430B8F561304A
:1001F000A1F4813049F028F0823049F0833051F089
:1002000008958FEF8ABB08958FEF87BB08958FEF16
:1002100084BB08958FEF81BB0895611110C08130B8
:1002200041F028F0823039F0833039F008951ABA5D
:10023000089517BA089514BA089511BA089581302F
:1002400041F028F0823039F0833039F008956ABBEC
:10025000089567BB089564BB089561BB0895843019
:10026000B8F56130A1F4813049F028F0823049F0CE
:10027000833051F008958FEF8BBB08958FEF88BBCB
:1002800008958FEF85BB08958FEF82BB08956111AC
:1002900010C0813041F028F0823039F0833039F0DD
:1002A00008951BBA089518BA089515BA089512BA98
:1002B0000895813041F028F0823039F0833039F0F0
:1002C00008956BBB089568BB089565BB089562BB34
:1002D0000895CF93C82F41E066E083E00E94490073
:1002E00040E067E083E00E94490041E065E083E090
:1002F0000E9449008DEE92E00197F1F700C00000E6
:100300006C2F81E00E942F0140E065E083E00E94B5
:1003100049008DEE92E00197F1F700C00000CF9107
:100320000895CF93C82F40E066E083E00E94490023
:1003300040E067E083E00E94490041E065E083E03F
:100340000E9449008DEE92E00197F1F700C0000095
:100350006C2F81E00E942F0140E065E083E00E9465
:1003600049008DEE92E00197F1F700C00000CF91B7
:1003700008958DE292E20197F1F700C0000088E352
:100380000E94910189EF90E00197F1F700C0000011
:100390008CE00E94910189EF90E00197F1F700C095
:1003A000000081E00E94910183EF91E00197F1F755
:1003B00000C0000086E00E9491010895CF93DF9372
:1003C000EC018881811104C006C00E946901219658
:1003D00088818111FACFDF91CF910895813029F47E
:1003E00080E8860F0E9491010895823021F480EC0C
:1003F000860F0E94910108958EB58D608EBD89E0B3
:100400009DE39BBD8ABD789489B7806189BF0895BB
:10041000CF93DF93CDB7DEB72C970FB6F894DEBF3E
:100420000FBECDBF61E083E00E94F50061E081E096
:100430000E94F50060E082E00E94F50060E080E04C
:100440000E94F50040E060E083E00E9449000E94C5
:10045000FC010E94B901812C912C412C512C612C62
:10046000712C212C312CE12CF12CC12CD12C02C06F
:10047000812C912C60E081E00E94EE0180917E0051
:1004800090917F000AE010E0B8010E94FC04CB01CB
:100490004AE050E0BE016B5F7F4F0E942405CE0111
:1004A00005960E94DE0180917E0090917F00B80148
:1004B0000E94FC044AE050E0BE016B5F7F4F0E9447
:1004C0002405CE0105960E94DE0180E690E00E94A0
:1004D000DE0163E081E00E94EE0180918000909156
:1004E0008100B8010E94FC04CB014AE050E0BE014B
:1004F0006D5F7F4F0E942405CE0103960E94DE01AE
:100500008091800090918100B8010E94FC044AE033
:1005100050E0BE016D5F7F4F0E942405CE0103961F
:100520000E94DE0180E690E00E94DE0166E081E04C
:100530000E94EE018091820090918300B8010E9498
:10054000FC04CB014AE050E0BE016F5F7F4F0E9488
:100550002405CE0101960E94DE01809182009091D7
:100560008300B8010E94FC044AE050E0BE016F5FC6
:100570007F4F0E942405CE0101960E94DE0168E0B3
:1005800081E00E94EE0165E080E00E94BF008823C8
:1005900041F182E690E00E94DE0140917E005091A0
:1005A0007F00209180003091810091E0E416F506F3
:1005B00009F090E081E0C216D30609F080E08923BB
:1005C000209182003091830091E0232B09F090E08C
:1005D000882339F0992329F041E060E083E00E940C
:1005E000490065E080E00E94BF00811109C08BE6F0
:1005F00090E00E94DE0140E060E083E00E9449005C
:1006000060E082E00E94EE0184E790E00E94DE015B
:1006100067E082E00E94EE010AE010E0C701B80145
:100620000E94FC049B015C014AE050E0BE01655F52
:100630007F4FC9010E942405CE010B960E94DE0166
:100640004AE050E0BE01655F7F4FC5010E9424056E
:10065000CE010B960E94DE0180E690E00E94DE0152
:100660006AE082E00E94EE01C601B8010E94FC042B
:100670009B018C014AE050E0BE01675F7F4FC901DA
:100680000E942405CE0109960E94DE014AE050E056
:10069000BE01675F7F4FC8010E942405CE01099605
:1006A0000E94DE0180E690E00E94DE016DE082E0C3
:1006B0000E94EE014AE050E0BE01695F7F4F80E09A
:1006C00090E00E942405CE0107960E94DE014AE0D8
:1006D00050E0BE01695F7F4F80E090E00E942405FA
:1006E000CE0107960E94DE0167E080E00E94BF0015
:1006F000882329F08CE790E00E94DE0104C08AE79D
:1007000090E00E94DE0167E080E00E94BF0081115E
:100710009DC063E082E00E94BF0081112FC08091E4
:10072000800090918100CC977CF42114310461F415
:100730002FEF221A320A8091800090918100019659
:10074000909381008093800080918000909181003F
:10075000CC97B1F480917E0090917F0048974CF443
:1007600080917E0090917F00019690937F0080930E
:100770007E00109281001092800002C0212C312C4A
:1007800064E082E00E94BF00811117C08091800068
:10079000909181001816190694F46114710479F48B
:1007A0008FEF681A780A80918000909181000197FC
:1007B000909381008093800002C0612C712C65E0D1
:1007C00082E00E94BF00811120C080917E00909144
:1007D0007F0048977CF44114510461F49FEF491A5B
:1007E000590A80917E0090917F00019690937F003E
:1007F00080937E0080917E0090917F00489739F42D
:1008000010927F0010927E0002C0412C512C66E0B5
:1008100082E00E94BF00811117C080917E009091FC
:100820007F001816190694F48114910479F42FEFBF
:10083000821A920A80917E0090917F000197909396
:100840007F0080937E0002C0812C912C67E080E0C5
:100850000E94BF00882309F40DCE63E082E00E946D
:10086000BF00811124C08CE3C816D10494F4211474
:10087000310479F49FEF291A390A2FEFC21AD20AEC
:100880008FE198E421E0815090402040E1F700C0E2
:1008900000008CE3C816D10479F498E1E916F1045C
:1008A0004CF42FEFE21AF20AC12CD12C05C0212CF6
:1008B000312C02C0C12CD12C64E082E00E94BF0028
:1008C00081110DC01C141D0464F46114710449F4F9
:1008D0008FEF681A780A91E0C91AD10802C0612C1A
:1008E000712C65E082E00E94BF00811112C028E1F6
:1008F000E216F1044CF44114510431F48FEF481A1C
:10090000580A9FEFE91AF90A28E1E216F10431F4D6
:1009100003C0412C512C02C0E12CF12C66E082E096
:100920000E94BF008111A4CD1E141F040CF0A2CDA3
:100930008114910409F09ECD8FEF881A980A91E0F6
:10094000E91AF10897CD1F920F920FB60F9211245A
:100950008F939F938091820090918300CC974CF469
:100960008091820090918300019690938300809300
:1009700082008091820090918300CC9799F48091BD
:10098000800090918100CC974CF4809180009091F0
:1009900081000196909381008093800010928300E3
:1009A000109282008091800090918100CC9799F400
:1009B00080917E0090917F0048974CF480917E005A
:1009C00090917F00019690937F0080937E0010921B
:1009D00081001092800080917E0090917F00489766
:1009E00021F410927F0010927E009F918F910F90C2
:1009F0000FBE0F901F90189597FB072E16F40094CA
:100A000007D077FD09D00E94100507FC05D03EF401
:100A1000909581959F4F0895709561957F4F0895AA
:100A2000AA1BBB1B51E107C0AA1FBB1FA617B70714
:100A300010F0A61BB70B881F991F5A95A9F7809530
:100A40009095BC01CD0108954532510520F4423006
:100A500010F00C942F05FB011082CB010895BB27E9
:100A60004A3031F4992322F4BDE2909581959F4F4D
:100A70000C943B05BB27FB015527AA27880F991F1C
:100A8000AA1FA41710F0A41B83955051B9F7A05DBD
:100A9000AA3308F0A95DA193009779F7B111B1933A
:100AA0001192CB010C945405DC01FC01672F71916C
:100AB0007723E1F7329704C07C916D937083629144
:0C0AC000AE17BF07C8F30895F894FFCFED
:100ACC003A0020414C4D3A4F4E200020414C4D3ABB
:0E0ADC004F464600414C41524D3A20003C002E
:00000001FF
